{
  "_format": "hh-sol-artifact-1",
  "contractName": "crowdFunding",
  "sourceName": "contracts/crowdFunding.sol",
  "abi": [
    {
      "inputs": [
        {
          "internalType": "uint256",
          "name": "",
          "type": "uint256"
        }
      ],
      "name": "campaigns",
      "outputs": [
        {
          "internalType": "address",
          "name": "owner",
          "type": "address"
        },
        {
          "internalType": "string",
          "name": "title",
          "type": "string"
        },
        {
          "internalType": "string",
          "name": "description",
          "type": "string"
        },
        {
          "internalType": "uint256",
          "name": "target",
          "type": "uint256"
        },
        {
          "internalType": "uint256",
          "name": "deadline",
          "type": "uint256"
        },
        {
          "internalType": "uint256",
          "name": "amountCollected",
          "type": "uint256"
        },
        {
          "internalType": "string",
          "name": "image",
          "type": "string"
        }
      ],
      "stateMutability": "view",
      "type": "function"
    },
    {
      "inputs": [
        {
          "internalType": "address",
          "name": "_owner",
          "type": "address"
        },
        {
          "internalType": "string",
          "name": "_title",
          "type": "string"
        },
        {
          "internalType": "string",
          "name": "_description",
          "type": "string"
        },
        {
          "internalType": "uint256",
          "name": "_target",
          "type": "uint256"
        },
        {
          "internalType": "uint256",
          "name": "_deadline",
          "type": "uint256"
        },
        {
          "internalType": "string",
          "name": "_image",
          "type": "string"
        }
      ],
      "name": "createCampaign",
      "outputs": [
        {
          "internalType": "uint256",
          "name": "",
          "type": "uint256"
        }
      ],
      "stateMutability": "nonpayable",
      "type": "function"
    },
    {
      "inputs": [
        {
          "internalType": "uint256",
          "name": "_id",
          "type": "uint256"
        }
      ],
      "name": "donateToCampaign",
      "outputs": [],
      "stateMutability": "payable",
      "type": "function"
    },
    {
      "inputs": [],
      "name": "getCampaign",
      "outputs": [
        {
          "components": [
            {
              "internalType": "address",
              "name": "owner",
              "type": "address"
            },
            {
              "internalType": "string",
              "name": "title",
              "type": "string"
            },
            {
              "internalType": "string",
              "name": "description",
              "type": "string"
            },
            {
              "internalType": "uint256",
              "name": "target",
              "type": "uint256"
            },
            {
              "internalType": "uint256",
              "name": "deadline",
              "type": "uint256"
            },
            {
              "internalType": "uint256",
              "name": "amountCollected",
              "type": "uint256"
            },
            {
              "internalType": "string",
              "name": "image",
              "type": "string"
            },
            {
              "internalType": "address[]",
              "name": "donators",
              "type": "address[]"
            },
            {
              "internalType": "uint256[]",
              "name": "donations",
              "type": "uint256[]"
            }
          ],
          "internalType": "struct crowdFunding.Campaign[]",
          "name": "",
          "type": "tuple[]"
        }
      ],
      "stateMutability": "view",
      "type": "function"
    },
    {
      "inputs": [
        {
          "internalType": "uint256",
          "name": "_id",
          "type": "uint256"
        }
      ],
      "name": "getDonators",
      "outputs": [
        {
          "internalType": "address[]",
          "name": "",
          "type": "address[]"
        },
        {
          "internalType": "uint256[]",
          "name": "",
          "type": "uint256[]"
        }
      ],
      "stateMutability": "view",
      "type": "function"
    },
    {
      "inputs": [],
      "name": "noOfCampaigns",
      "outputs": [
        {
          "internalType": "uint256",
          "name": "",
          "type": "uint256"
        }
      ],
      "stateMutability": "view",
      "type": "function"
    }
  ],
  "bytecode": "0x6080604052600060015534801561001557600080fd5b50610f16806100256000396000f3fe6080604052600436106100555760003560e01c80630fa91fa91461005a578063141961bc1461009157806317818e59146100c4578063236b8e3a146100e857806342a4fda81461010a5780639943e3a11461011f575b600080fd5b34801561006657600080fd5b5061007a610075366004610a04565b61013f565b604051610088929190610a1d565b60405180910390f35b34801561009d57600080fd5b506100b16100ac366004610a04565b61020e565b6040516100889796959493929190610aee565b3480156100d057600080fd5b506100da60015481565b604051908152602001610088565b3480156100f457600080fd5b506100fd6103eb565b6040516100889190610bcc565b61011d610118366004610a04565b610798565b005b34801561012b57600080fd5b506100da61013a366004610d7c565b61085a565b600081815260208181526040918290206007810180548451818502810185019095528085526060948594929360080192909184918301828280156101ac57602002820191906000526020600020905b81546001600160a01b0316815260019091019060200180831161018e575b50505050509150808054806020026020016040519081016040528092919081815260200182805480156101fe57602002820191906000526020600020905b8154815260200190600101908083116101ea575b5050505050905091509150915091565b600060208190529081526040902080546001820180546001600160a01b03909216929161023a90610e35565b80601f016020809104026020016040519081016040528092919081815260200182805461026690610e35565b80156102b35780601f10610288576101008083540402835291602001916102b3565b820191906000526020600020905b81548152906001019060200180831161029657829003601f168201915b5050505050908060020180546102c890610e35565b80601f01602080910402602001604051908101604052809291908181526020018280546102f490610e35565b80156103415780601f1061031657610100808354040283529160200191610341565b820191906000526020600020905b81548152906001019060200180831161032457829003601f168201915b50505050509080600301549080600401549080600501549080600601805461036890610e35565b80601f016020809104026020016040519081016040528092919081815260200182805461039490610e35565b80156103e15780601f106103b6576101008083540402835291602001916103e1565b820191906000526020600020905b8154815290600101906020018083116103c457829003601f168201915b5050505050905087565b6060600060015467ffffffffffffffff81111561040a5761040a610cd9565b60405190808252806020026020018201604052801561049357816020015b61048060405180610120016040528060006001600160a01b0316815260200160608152602001606081526020016000815260200160008152602001600081526020016060815260200160608152602001606081525090565b8152602001906001900390816104285790505b50905060005b60015481101561079257600081815260208181526040918290208251610120810190935280546001600160a01b03168352600181018054919392849290840191906104e390610e35565b80601f016020809104026020016040519081016040528092919081815260200182805461050f90610e35565b801561055c5780601f106105315761010080835404028352916020019161055c565b820191906000526020600020905b81548152906001019060200180831161053f57829003601f168201915b5050505050815260200160028201805461057590610e35565b80601f01602080910402602001604051908101604052809291908181526020018280546105a190610e35565b80156105ee5780601f106105c3576101008083540402835291602001916105ee565b820191906000526020600020905b8154815290600101906020018083116105d157829003601f168201915b5050505050815260200160038201548152602001600482015481526020016005820154815260200160068201805461062590610e35565b80601f016020809104026020016040519081016040528092919081815260200182805461065190610e35565b801561069e5780601f106106735761010080835404028352916020019161069e565b820191906000526020600020905b81548152906001019060200180831161068157829003601f168201915b505050505081526020016007820180548060200260200160405190810160405280929190818152602001828054801561070057602002820191906000526020600020905b81546001600160a01b031681526001909101906020018083116106e2575b505050505081526020016008820180548060200260200160405190810160405280929190818152602001828054801561075857602002820191906000526020600020905b815481526020019060010190808311610744575b50505050508152505083838151811061077357610773610e6a565b602002602001018190525050808061078a90610e96565b915050610499565b50919050565b600081815260208181526040808320600781018054600180820183559186528486200180546001600160a01b0319163317905560088201805491820181558552928420349301839055805491519293909290916001600160a01b03169084908381818185875af1925050503d806000811461082f576040519150601f19603f3d011682016040523d82523d6000602084013e610834565b606091505b5050905080156108545782826005015461084e9190610eb1565b60058301555b50505050565b6001546000908152602081905260408120600481015442116108cc5760405162461bcd60e51b815260206004820152602160248201527f646561646c696e652073686f756c64206265206461746520696e2066757475726044820152606560f81b606482015260840160405180910390fd5b80546001600160a01b0319166001600160a01b03891617815586516108fa90600183019060208a019061096b565b508551610910906002830190602089019061096b565b50600381018590556004810184905560006005820155825161093b906006830190602086019061096b565b506001805490600061094c83610e96565b91905055506001805461095f9190610ec9565b98975050505050505050565b82805461097790610e35565b90600052602060002090601f01602090048101928261099957600085556109df565b82601f106109b257805160ff19168380011785556109df565b828001600101855582156109df579182015b828111156109df5782518255916020019190600101906109c4565b506109eb9291506109ef565b5090565b5b808211156109eb57600081556001016109f0565b600060208284031215610a1657600080fd5b5035919050565b604080825283519082018190526000906020906060840190828701845b82811015610a5f5781516001600160a01b031684529284019290840190600101610a3a565b5050508381038285015284518082528583019183019060005b81811015610a9457835183529284019291840191600101610a78565b5090979650505050505050565b6000815180845260005b81811015610ac757602081850181015186830182015201610aab565b81811115610ad9576000602083870101525b50601f01601f19169290920160200192915050565b6001600160a01b038816815260e060208201819052600090610b1290830189610aa1565b8281036040840152610b248189610aa1565b90508660608401528560808401528460a084015282810360c0840152610b4a8185610aa1565b9a9950505050505050505050565b600081518084526020808501945080840160005b83811015610b915781516001600160a01b031687529582019590820190600101610b6c565b509495945050505050565b600081518084526020808501945080840160005b83811015610b9157815187529582019590820190600101610bb0565b60006020808301818452808551808352604092508286019150828160051b87010184880160005b83811015610ccb57888303603f19018552815180516001600160a01b0316845261012088820151818a870152610c2b82870182610aa1565b9150508782015185820389870152610c438282610aa1565b606084810151908801526080808501519088015260a0808501519088015260c080850151888303828a01529193509150610c7d8382610aa1565b9250505060e08083015186830382880152610c988382610b58565b925050506101008083015192508582038187015250610cb78183610b9c565b968901969450505090860190600101610bf3565b509098975050505050505050565b634e487b7160e01b600052604160045260246000fd5b600082601f830112610d0057600080fd5b813567ffffffffffffffff80821115610d1b57610d1b610cd9565b604051601f8301601f19908116603f01168101908282118183101715610d4357610d43610cd9565b81604052838152866020858801011115610d5c57600080fd5b836020870160208301376000602085830101528094505050505092915050565b60008060008060008060c08789031215610d9557600080fd5b86356001600160a01b0381168114610dac57600080fd5b9550602087013567ffffffffffffffff80821115610dc957600080fd5b610dd58a838b01610cef565b96506040890135915080821115610deb57600080fd5b610df78a838b01610cef565b9550606089013594506080890135935060a0890135915080821115610e1b57600080fd5b50610e2889828a01610cef565b9150509295509295509295565b600181811c90821680610e4957607f821691505b6020821081141561079257634e487b7160e01b600052602260045260246000fd5b634e487b7160e01b600052603260045260246000fd5b634e487b7160e01b600052601160045260246000fd5b6000600019821415610eaa57610eaa610e80565b5060010190565b60008219821115610ec457610ec4610e80565b500190565b600082821015610edb57610edb610e80565b50039056fea26469706673582212206df873963ebf6f4ef68432153edd2eab0875e9d4850892a7fdd964a28a3e0e4e64736f6c63430008090033",
  "linkReferences": {},
  "deployedLinkReferences": {}
}